{
  "_format": "hh-sol-artifact-1",
  "contractName": "VotingDApp",
  "sourceName": "contracts/VotingDApp.sol",
  "abi": [
    {
      "inputs": [],
      "stateMutability": "nonpayable",
      "type": "constructor"
    },
    {
      "anonymous": false,
      "inputs": [
        {
          "indexed": true,
          "internalType": "uint256",
          "name": "candidateId",
          "type": "uint256"
        },
        {
          "indexed": false,
          "internalType": "string",
          "name": "name",
          "type": "string"
        },
        {
          "indexed": false,
          "internalType": "string",
          "name": "age",
          "type": "string"
        },
        {
          "indexed": false,
          "internalType": "string",
          "name": "image",
          "type": "string"
        },
        {
          "indexed": false,
          "internalType": "address",
          "name": "candidateAddress",
          "type": "address"
        },
        {
          "indexed": false,
          "internalType": "string",
          "name": "ipfs",
          "type": "string"
        }
      ],
      "name": "CandidateRegistered",
      "type": "event"
    },
    {
      "anonymous": false,
      "inputs": [
        {
          "indexed": true,
          "internalType": "address",
          "name": "voterAddress",
          "type": "address"
        },
        {
          "indexed": false,
          "internalType": "uint256",
          "name": "candidateId",
          "type": "uint256"
        }
      ],
      "name": "VoteCast",
      "type": "event"
    },
    {
      "anonymous": false,
      "inputs": [
        {
          "indexed": true,
          "internalType": "uint256",
          "name": "voterId",
          "type": "uint256"
        },
        {
          "indexed": false,
          "internalType": "string",
          "name": "name",
          "type": "string"
        },
        {
          "indexed": false,
          "internalType": "string",
          "name": "image",
          "type": "string"
        },
        {
          "indexed": false,
          "internalType": "address",
          "name": "voterAddress",
          "type": "address"
        },
        {
          "indexed": false,
          "internalType": "string",
          "name": "ipfs",
          "type": "string"
        }
      ],
      "name": "VoterRegistered",
      "type": "event"
    },
    {
      "anonymous": false,
      "inputs": [
        {
          "indexed": true,
          "internalType": "address",
          "name": "winner",
          "type": "address"
        },
        {
          "indexed": false,
          "internalType": "uint256",
          "name": "voteCount",
          "type": "uint256"
        }
      ],
      "name": "VotingEnded",
      "type": "event"
    },
    {
      "anonymous": false,
      "inputs": [],
      "name": "VotingStarted",
      "type": "event"
    },
    {
      "inputs": [
        {
          "internalType": "uint256",
          "name": "",
          "type": "uint256"
        }
      ],
      "name": "candidateAddresses",
      "outputs": [
        {
          "internalType": "address",
          "name": "",
          "type": "address"
        }
      ],
      "stateMutability": "view",
      "type": "function"
    },
    {
      "inputs": [
        {
          "internalType": "uint256",
          "name": "",
          "type": "uint256"
        }
      ],
      "name": "candidateAddressesById",
      "outputs": [
        {
          "internalType": "address",
          "name": "",
          "type": "address"
        }
      ],
      "stateMutability": "view",
      "type": "function"
    },
    {
      "inputs": [
        {
          "internalType": "address",
          "name": "",
          "type": "address"
        }
      ],
      "name": "candidates",
      "outputs": [
        {
          "internalType": "uint256",
          "name": "candidateId",
          "type": "uint256"
        },
        {
          "internalType": "string",
          "name": "age",
          "type": "string"
        },
        {
          "internalType": "string",
          "name": "name",
          "type": "string"
        },
        {
          "internalType": "string",
          "name": "image",
          "type": "string"
        },
        {
          "internalType": "uint256",
          "name": "voteCount",
          "type": "uint256"
        },
        {
          "internalType": "address",
          "name": "candidateAddress",
          "type": "address"
        },
        {
          "internalType": "string",
          "name": "ipfs",
          "type": "string"
        }
      ],
      "stateMutability": "view",
      "type": "function"
    },
    {
      "inputs": [],
      "name": "determineLeadingCandidate",
      "outputs": [
        {
          "internalType": "address",
          "name": "",
          "type": "address"
        },
        {
          "internalType": "uint256",
          "name": "",
          "type": "uint256"
        }
      ],
      "stateMutability": "view",
      "type": "function"
    },
    {
      "inputs": [],
      "name": "endVoting",
      "outputs": [],
      "stateMutability": "nonpayable",
      "type": "function"
    },
    {
      "inputs": [
        {
          "internalType": "address",
          "name": "_address",
          "type": "address"
        }
      ],
      "name": "getCandidateData",
      "outputs": [
        {
          "internalType": "string",
          "name": "",
          "type": "string"
        },
        {
          "internalType": "string",
          "name": "",
          "type": "string"
        },
        {
          "internalType": "uint256",
          "name": "",
          "type": "uint256"
        },
        {
          "internalType": "string",
          "name": "",
          "type": "string"
        },
        {
          "internalType": "uint256",
          "name": "",
          "type": "uint256"
        },
        {
          "internalType": "string",
          "name": "",
          "type": "string"
        },
        {
          "internalType": "address",
          "name": "",
          "type": "address"
        }
      ],
      "stateMutability": "view",
      "type": "function"
    },
    {
      "inputs": [],
      "name": "getCandidateLength",
      "outputs": [
        {
          "internalType": "uint256",
          "name": "",
          "type": "uint256"
        }
      ],
      "stateMutability": "view",
      "type": "function"
    },
    {
      "inputs": [],
      "name": "getCandidates",
      "outputs": [
        {
          "internalType": "address[]",
          "name": "",
          "type": "address[]"
        }
      ],
      "stateMutability": "view",
      "type": "function"
    },
    {
      "inputs": [],
      "name": "getVotedVoters",
      "outputs": [
        {
          "internalType": "address[]",
          "name": "",
          "type": "address[]"
        }
      ],
      "stateMutability": "view",
      "type": "function"
    },
    {
      "inputs": [],
      "name": "getVotedVotersCount",
      "outputs": [
        {
          "internalType": "uint256",
          "name": "",
          "type": "uint256"
        }
      ],
      "stateMutability": "view",
      "type": "function"
    },
    {
      "inputs": [],
      "name": "getVoterCount",
      "outputs": [
        {
          "internalType": "uint256",
          "name": "",
          "type": "uint256"
        }
      ],
      "stateMutability": "view",
      "type": "function"
    },
    {
      "inputs": [
        {
          "internalType": "address",
          "name": "_address",
          "type": "address"
        }
      ],
      "name": "getVoterData",
      "outputs": [
        {
          "internalType": "uint256",
          "name": "",
          "type": "uint256"
        },
        {
          "internalType": "string",
          "name": "",
          "type": "string"
        },
        {
          "internalType": "string",
          "name": "",
          "type": "string"
        },
        {
          "internalType": "address",
          "name": "",
          "type": "address"
        },
        {
          "internalType": "bool",
          "name": "",
          "type": "bool"
        },
        {
          "internalType": "uint256",
          "name": "",
          "type": "uint256"
        },
        {
          "internalType": "string",
          "name": "",
          "type": "string"
        }
      ],
      "stateMutability": "view",
      "type": "function"
    },
    {
      "inputs": [],
      "name": "getVoters",
      "outputs": [
        {
          "internalType": "address[]",
          "name": "",
          "type": "address[]"
        }
      ],
      "stateMutability": "view",
      "type": "function"
    },
    {
      "inputs": [],
      "name": "leadingCandidate",
      "outputs": [
        {
          "internalType": "address",
          "name": "",
          "type": "address"
        }
      ],
      "stateMutability": "view",
      "type": "function"
    },
    {
      "inputs": [],
      "name": "leadingVoteCount",
      "outputs": [
        {
          "internalType": "uint256",
          "name": "",
          "type": "uint256"
        }
      ],
      "stateMutability": "view",
      "type": "function"
    },
    {
      "inputs": [],
      "name": "owner",
      "outputs": [
        {
          "internalType": "address",
          "name": "",
          "type": "address"
        }
      ],
      "stateMutability": "view",
      "type": "function"
    },
    {
      "inputs": [
        {
          "internalType": "address",
          "name": "_candidateAddress",
          "type": "address"
        },
        {
          "internalType": "string",
          "name": "_age",
          "type": "string"
        },
        {
          "internalType": "string",
          "name": "_name",
          "type": "string"
        },
        {
          "internalType": "string",
          "name": "_image",
          "type": "string"
        },
        {
          "internalType": "string",
          "name": "_ipfs",
          "type": "string"
        }
      ],
      "name": "registerCandidate",
      "outputs": [],
      "stateMutability": "nonpayable",
      "type": "function"
    },
    {
      "inputs": [
        {
          "internalType": "string",
          "name": "_name",
          "type": "string"
        },
        {
          "internalType": "string",
          "name": "_image",
          "type": "string"
        },
        {
          "internalType": "string",
          "name": "_ipfs",
          "type": "string"
        }
      ],
      "name": "registerVoter",
      "outputs": [],
      "stateMutability": "nonpayable",
      "type": "function"
    },
    {
      "inputs": [],
      "name": "resetVoting",
      "outputs": [],
      "stateMutability": "nonpayable",
      "type": "function"
    },
    {
      "inputs": [],
      "name": "startVoting",
      "outputs": [],
      "stateMutability": "nonpayable",
      "type": "function"
    },
    {
      "inputs": [
        {
          "internalType": "uint256",
          "name": "candidateId",
          "type": "uint256"
        }
      ],
      "name": "vote",
      "outputs": [],
      "stateMutability": "nonpayable",
      "type": "function"
    },
    {
      "inputs": [
        {
          "internalType": "uint256",
          "name": "",
          "type": "uint256"
        }
      ],
      "name": "votedVoters",
      "outputs": [
        {
          "internalType": "address",
          "name": "",
          "type": "address"
        }
      ],
      "stateMutability": "view",
      "type": "function"
    },
    {
      "inputs": [
        {
          "internalType": "uint256",
          "name": "",
          "type": "uint256"
        }
      ],
      "name": "voterAddresses",
      "outputs": [
        {
          "internalType": "address",
          "name": "",
          "type": "address"
        }
      ],
      "stateMutability": "view",
      "type": "function"
    },
    {
      "inputs": [
        {
          "internalType": "address",
          "name": "",
          "type": "address"
        }
      ],
      "name": "voters",
      "outputs": [
        {
          "internalType": "uint256",
          "name": "voterId",
          "type": "uint256"
        },
        {
          "internalType": "string",
          "name": "name",
          "type": "string"
        },
        {
          "internalType": "string",
          "name": "image",
          "type": "string"
        },
        {
          "internalType": "address",
          "name": "voterAddress",
          "type": "address"
        },
        {
          "internalType": "bool",
          "name": "voted",
          "type": "bool"
        },
        {
          "internalType": "uint256",
          "name": "vote",
          "type": "uint256"
        },
        {
          "internalType": "string",
          "name": "ipfs",
          "type": "string"
        }
      ],
      "stateMutability": "view",
      "type": "function"
    },
    {
      "inputs": [],
      "name": "votingEnded",
      "outputs": [
        {
          "internalType": "bool",
          "name": "",
          "type": "bool"
        }
      ],
      "stateMutability": "view",
      "type": "function"
    },
    {
      "inputs": [],
      "name": "votingStarted",
      "outputs": [
        {
          "internalType": "bool",
          "name": "",
          "type": "bool"
        }
      ],
      "stateMutability": "view",
      "type": "function"
    },
    {
      "inputs": [],
      "name": "winningCandidate",
      "outputs": [
        {
          "internalType": "address",
          "name": "",
          "type": "address"
        }
      ],
      "stateMutability": "view",
      "type": "function"
    },
    {
      "inputs": [],
      "name": "winningVoteCount",
      "outputs": [
        {
          "internalType": "uint256",
          "name": "",
          "type": "uint256"
        }
      ],
      "stateMutability": "view",
      "type": "function"
    }
  ],
  "bytecode": "0x60806040526000600260146101000a81548160ff0219169083151502179055506000600260156101000a81548160ff02191690831515021790555034801561004657600080fd5b5033600260006101000a81548173ffffffffffffffffffffffffffffffffffffffff021916908373ffffffffffffffffffffffffffffffffffffffff160217905550613974806100976000396000f3fe608060405234801561001057600080fd5b50600436106101c45760003560e01c80638ab66a90116100f9578063c3403ddf11610097578063d28178d711610071578063d28178d7146104dc578063d55d73c5146104fa578063dd0e23731461052a578063f7522a831461055a576101c4565b8063c3403ddf14610496578063cccd23d3146104a0578063cdd72253146104be576101c4565b80639622ece8116100d35780639622ece8146104055780639d5a052914610424578063a14d50f714610442578063a3ec138d14610460576101c4565b80638ab66a901461037b5780638da5cb5b146103b15780638fb4cd80146103cf576101c4565b80632a466ac7116101665780635c739926116101405780635c739926146102f35780637831ffb31461032357806383d948b714610353578063856e698c14610371576101c4565b80632a466ac71461028357806347a553ad146102b9578063598f977d146102d7576101c4565b806311174a29116101a257806311174a291461021f578063189d29581461023d5780631d9128d31461025b5780631ec6b60a14610279576101c4565b80630121b93f146101c957806306a49fce146101e55780630743950914610203575b600080fd5b6101e360048036038101906101de9190612cb0565b610578565b005b6101ed610914565b6040516101fa9190613206565b60405180910390f35b61021d60048036038101906102189190612c19565b6109a2565b005b610227610ce3565b6040516102349190613537565b60405180910390f35b610245610cf0565b6040516102529190613206565b60405180910390f35b610263610d7e565b6040516102709190613537565b60405180910390f35b610281610d84565b005b61029d60048036038101906102989190612b19565b610fa8565b6040516102b0979695949392919061330c565b60405180910390f35b6102c16112f1565b6040516102ce91906131c2565b60405180910390f35b6102f160048036038101906102ec9190612b42565b611317565b005b61030d60048036038101906103089190612cb0565b611738565b60405161031a91906131c2565b60405180910390f35b61033d60048036038101906103389190612cb0565b61176b565b60405161034a91906131c2565b60405180910390f35b61035b6117aa565b6040516103689190613228565b60405180910390f35b6103796117bd565b005b61039560048036038101906103909190612b19565b611c2d565b6040516103a897969594939291906135d6565b60405180910390f35b6103b9611eaf565b6040516103c691906131c2565b60405180910390f35b6103e960048036038101906103e49190612b19565b611ed5565b6040516103fc9796959493929190613552565b60405180910390f35b61040d6121a7565b60405161041b9291906131dd565b60405180910390f35b61042c612309565b6040516104399190613228565b60405180910390f35b61044a61231c565b6040516104579190613537565b60405180910390f35b61047a60048036038101906104759190612b19565b612322565b60405161048d9796959493929190613552565b60405180910390f35b61049e612529565b005b6104a86126d3565b6040516104b59190613537565b60405180910390f35b6104c66126e0565b6040516104d39190613206565b60405180910390f35b6104e461276e565b6040516104f191906131c2565b60405180910390f35b610514600480360381019061050f9190612cb0565b612794565b60405161052191906131c2565b60405180910390f35b610544600480360381019061053f9190612cb0565b6127d3565b60405161055191906131c2565b60405180910390f35b610562612812565b60405161056f9190613537565b60405180910390f35b600260149054906101000a900460ff1680156105a15750600260159054906101000a900460ff16155b6105e0576040517f08c379a00000000000000000000000000000000000000000000000000000000081526004016105d7906133d7565b60405180910390fd5b6000600960003373ffffffffffffffffffffffffffffffffffffffff1673ffffffffffffffffffffffffffffffffffffffff1681526020019081526020016000209050600073ffffffffffffffffffffffffffffffffffffffff168160030160009054906101000a900473ffffffffffffffffffffffffffffffffffffffff1673ffffffffffffffffffffffffffffffffffffffff1614156106b7576040517f08c379a00000000000000000000000000000000000000000000000000000000081526004016106ae906134b7565b60405180910390fd5b8060030160149054906101000a900460ff1615610709576040517f08c379a000000000000000000000000000000000000000000000000000000000815260040161070090613397565b60405180910390fd5b600073ffffffffffffffffffffffffffffffffffffffff16600a600084815260200190815260200160002060009054906101000a900473ffffffffffffffffffffffffffffffffffffffff1673ffffffffffffffffffffffffffffffffffffffff1614156107ac576040517f08c379a00000000000000000000000000000000000000000000000000000000081526004016107a390613517565b60405180910390fd5b600160086000600a600086815260200190815260200160002060009054906101000a900473ffffffffffffffffffffffffffffffffffffffff1673ffffffffffffffffffffffffffffffffffffffff1673ffffffffffffffffffffffffffffffffffffffff16815260200190815260200160002060040160008282546108329190613717565b9250508190555060018160030160146101000a81548160ff0219169083151502179055508181600401819055506007339080600181540180825580915050600190039060005260206000200160009091909190916101000a81548173ffffffffffffffffffffffffffffffffffffffff021916908373ffffffffffffffffffffffffffffffffffffffff1602179055503373ffffffffffffffffffffffffffffffffffffffff167fa36cc2bebb74db33e9f88110a07ef56e1b31b24b4c4f51b54b1664266e29f45b836040516109089190613537565b60405180910390a25050565b6060600580548060200260200160405190810160405280929190818152602001828054801561099857602002820191906000526020600020905b8160009054906101000a900473ffffffffffffffffffffffffffffffffffffffff1673ffffffffffffffffffffffffffffffffffffffff168152602001906001019080831161094e575b5050505050905090565b600260149054906101000a900460ff16156109f2576040517f08c379a00000000000000000000000000000000000000000000000000000000081526004016109e9906133b7565b60405180910390fd5b600073ffffffffffffffffffffffffffffffffffffffff16600960003373ffffffffffffffffffffffffffffffffffffffff1673ffffffffffffffffffffffffffffffffffffffff16815260200190815260200160002060030160009054906101000a900473ffffffffffffffffffffffffffffffffffffffff1673ffffffffffffffffffffffffffffffffffffffff1614610ac3576040517f08c379a0000000000000000000000000000000000000000000000000000000008152600401610aba90613437565b60405180910390fd5b610acd600061281f565b6000610ad9600061283e565b90506040518060e001604052808281526020018581526020018481526020013373ffffffffffffffffffffffffffffffffffffffff1681526020016000151581526020016000815260200183815250600960003373ffffffffffffffffffffffffffffffffffffffff1673ffffffffffffffffffffffffffffffffffffffff168152602001908152602001600020600082015181600001556020820151816001019080519060200190610b8d929190612983565b506040820151816002019080519060200190610baa929190612983565b5060608201518160030160006101000a81548173ffffffffffffffffffffffffffffffffffffffff021916908373ffffffffffffffffffffffffffffffffffffffff16021790555060808201518160030160146101000a81548160ff02191690831515021790555060a0820151816004015560c0820151816005019080519060200190610c38929190612983565b509050506006339080600181540180825580915050600190039060005260206000200160009091909190916101000a81548173ffffffffffffffffffffffffffffffffffffffff021916908373ffffffffffffffffffffffffffffffffffffffff160217905550807f27cc25bd873b5ab85e30a271ef8c5e54e305ae6467e4a4a01ac0da7f55df2e7385853386604051610cd59493929190613243565b60405180910390a250505050565b6000600680549050905090565b60606007805480602002602001604051908101604052809291908181526020018280548015610d7457602002820191906000526020600020905b8160009054906101000a900473ffffffffffffffffffffffffffffffffffffffff1673ffffffffffffffffffffffffffffffffffffffff1681526020019060010190808311610d2a575b5050505050905090565b60045481565b600260159054906101000a900460ff1615610dd4576040517f08c379a0000000000000000000000000000000000000000000000000000000008152600401610dcb90613497565b60405180910390fd5b600260009054906101000a900473ffffffffffffffffffffffffffffffffffffffff1673ffffffffffffffffffffffffffffffffffffffff163373ffffffffffffffffffffffffffffffffffffffff1614610e64576040517f08c379a0000000000000000000000000000000000000000000000000000000008152600401610e5b90613477565b60405180910390fd5b600060058054905011610eac576040517f08c379a0000000000000000000000000000000000000000000000000000000008152600401610ea3906134f7565b60405180910390fd5b600060068054905011610ef4576040517f08c379a0000000000000000000000000000000000000000000000000000000008152600401610eeb90613417565b60405180910390fd5b600260149054906101000a900460ff1615610f44576040517f08c379a0000000000000000000000000000000000000000000000000000000008152600401610f3b906134d7565b60405180910390fd5b6001600260146101000a81548160ff0219169083151502179055506000600260156101000a81548160ff0219169083151502179055507f877e2548498f42b7975a186b94ef1d32c86d420b7b806dd2be2bea293b89590460405160405180910390a1565b6060806000606060006060600080600860008a73ffffffffffffffffffffffffffffffffffffffff1673ffffffffffffffffffffffffffffffffffffffff1681526020019081526020016000206040518060e00160405290816000820154815260200160018201805461101a906137f7565b80601f0160208091040260200160405190810160405280929190818152602001828054611046906137f7565b80156110935780601f1061106857610100808354040283529160200191611093565b820191906000526020600020905b81548152906001019060200180831161107657829003601f168201915b505050505081526020016002820180546110ac906137f7565b80601f01602080910402602001604051908101604052809291908181526020018280546110d8906137f7565b80156111255780601f106110fa57610100808354040283529160200191611125565b820191906000526020600020905b81548152906001019060200180831161110857829003601f168201915b5050505050815260200160038201805461113e906137f7565b80601f016020809104026020016040519081016040528092919081815260200182805461116a906137f7565b80156111b75780601f1061118c576101008083540402835291602001916111b7565b820191906000526020600020905b81548152906001019060200180831161119a57829003601f168201915b50505050508152602001600482015481526020016005820160009054906101000a900473ffffffffffffffffffffffffffffffffffffffff1673ffffffffffffffffffffffffffffffffffffffff1673ffffffffffffffffffffffffffffffffffffffff168152602001600682018054611230906137f7565b80601f016020809104026020016040519081016040528092919081815260200182805461125c906137f7565b80156112a95780601f1061127e576101008083540402835291602001916112a9565b820191906000526020600020905b81548152906001019060200180831161128c57829003601f168201915b5050505050815250509050806020015181604001518260000151836060015184608001518560c001518660a00151975097509750975097509750975050919395979092949650565b600b60009054906101000a900473ffffffffffffffffffffffffffffffffffffffff1681565b600260009054906101000a900473ffffffffffffffffffffffffffffffffffffffff1673ffffffffffffffffffffffffffffffffffffffff163373ffffffffffffffffffffffffffffffffffffffff16146113a7576040517f08c379a000000000000000000000000000000000000000000000000000000000815260040161139e90613477565b60405180910390fd5b600260149054906101000a900460ff16156113f7576040517f08c379a00000000000000000000000000000000000000000000000000000000081526004016113ee906133b7565b60405180910390fd5b600073ffffffffffffffffffffffffffffffffffffffff16600860008773ffffffffffffffffffffffffffffffffffffffff1673ffffffffffffffffffffffffffffffffffffffff16815260200190815260200160002060050160009054906101000a900473ffffffffffffffffffffffffffffffffffffffff1673ffffffffffffffffffffffffffffffffffffffff16146114c8576040517f08c379a00000000000000000000000000000000000000000000000000000000081526004016114bf90613457565b60405180910390fd5b6114d2600161281f565b60006114de600161283e565b90506040518060e00160405280828152602001868152602001858152602001848152602001600081526020018773ffffffffffffffffffffffffffffffffffffffff16815260200183815250600860008873ffffffffffffffffffffffffffffffffffffffff1673ffffffffffffffffffffffffffffffffffffffff16815260200190815260200160002060008201518160000155602082015181600101908051906020019061158f929190612983565b5060408201518160020190805190602001906115ac929190612983565b5060608201518160030190805190602001906115c9929190612983565b506080820151816004015560a08201518160050160006101000a81548173ffffffffffffffffffffffffffffffffffffffff021916908373ffffffffffffffffffffffffffffffffffffffff16021790555060c0820151816006019080519060200190611637929190612983565b509050506005869080600181540180825580915050600190039060005260206000200160009091909190916101000a81548173ffffffffffffffffffffffffffffffffffffffff021916908373ffffffffffffffffffffffffffffffffffffffff16021790555085600a600083815260200190815260200160002060006101000a81548173ffffffffffffffffffffffffffffffffffffffff021916908373ffffffffffffffffffffffffffffffffffffffff160217905550807f57c80d75c5a8e4092c516673be79fc9a4f1c84d495f991de952eecdfe9d183ba8587868a8760405161172895949392919061329d565b60405180910390a2505050505050565b600a6020528060005260406000206000915054906101000a900473ffffffffffffffffffffffffffffffffffffffff1681565b6007818154811061177b57600080fd5b906000526020600020016000915054906101000a900473ffffffffffffffffffffffffffffffffffffffff1681565b600260149054906101000a900460ff1681565b600260009054906101000a900473ffffffffffffffffffffffffffffffffffffffff1673ffffffffffffffffffffffffffffffffffffffff163373ffffffffffffffffffffffffffffffffffffffff161461184d576040517f08c379a000000000000000000000000000000000000000000000000000000000815260040161184490613477565b60405180910390fd5b600260159054906101000a900460ff1661189c576040517f08c379a0000000000000000000000000000000000000000000000000000000008152600401611893906133f7565b60405180910390fd5b60005b6006805490508110156119e05760096000600683815481106118ea577f4e487b7100000000000000000000000000000000000000000000000000000000600052603260045260246000fd5b9060005260206000200160009054906101000a900473ffffffffffffffffffffffffffffffffffffffff1673ffffffffffffffffffffffffffffffffffffffff1673ffffffffffffffffffffffffffffffffffffffff1681526020019081526020016000206000808201600090556001820160006119689190612a09565b6002820160006119789190612a09565b6003820160006101000a81549073ffffffffffffffffffffffffffffffffffffffff02191690556003820160146101000a81549060ff021916905560048201600090556005820160006119cb9190612a09565b505080806119d890613829565b91505061189f565b50600660006119ef9190612a49565b60005b600580549050811015611b2f576008600060058381548110611a3d577f4e487b7100000000000000000000000000000000000000000000000000000000600052603260045260246000fd5b9060005260206000200160009054906101000a900473ffffffffffffffffffffffffffffffffffffffff1673ffffffffffffffffffffffffffffffffffffffff1673ffffffffffffffffffffffffffffffffffffffff168152602001908152602001600020600080820160009055600182016000611abb9190612a09565b600282016000611acb9190612a09565b600382016000611adb9190612a09565b60048201600090556005820160006101000a81549073ffffffffffffffffffffffffffffffffffffffff0219169055600682016000611b1a9190612a09565b50508080611b2790613829565b9150506119f2565b5060056000611b3e9190612a49565b60076000611b4c9190612a49565b6000806000018190555060006001600001819055506000600260146101000a81548160ff0219169083151502179055506000600260156101000a81548160ff0219169083151502179055506000600360006101000a81548173ffffffffffffffffffffffffffffffffffffffff021916908373ffffffffffffffffffffffffffffffffffffffff16021790555060006004819055506000600b60006101000a81548173ffffffffffffffffffffffffffffffffffffffff021916908373ffffffffffffffffffffffffffffffffffffffff1602179055506000600c81905550565b6008602052806000526040600020600091509050806000015490806001018054611c56906137f7565b80601f0160208091040260200160405190810160405280929190818152602001828054611c82906137f7565b8015611ccf5780601f10611ca457610100808354040283529160200191611ccf565b820191906000526020600020905b815481529060010190602001808311611cb257829003601f168201915b505050505090806002018054611ce4906137f7565b80601f0160208091040260200160405190810160405280929190818152602001828054611d10906137f7565b8015611d5d5780601f10611d3257610100808354040283529160200191611d5d565b820191906000526020600020905b815481529060010190602001808311611d4057829003601f168201915b505050505090806003018054611d72906137f7565b80601f0160208091040260200160405190810160405280929190818152602001828054611d9e906137f7565b8015611deb5780601f10611dc057610100808354040283529160200191611deb565b820191906000526020600020905b815481529060010190602001808311611dce57829003601f168201915b5050505050908060040154908060050160009054906101000a900473ffffffffffffffffffffffffffffffffffffffff1690806006018054611e2c906137f7565b80601f0160208091040260200160405190810160405280929190818152602001828054611e58906137f7565b8015611ea55780601f10611e7a57610100808354040283529160200191611ea5565b820191906000526020600020905b815481529060010190602001808311611e8857829003601f168201915b5050505050905087565b600260009054906101000a900473ffffffffffffffffffffffffffffffffffffffff1681565b6000606080600080600060606000600960008a73ffffffffffffffffffffffffffffffffffffffff1673ffffffffffffffffffffffffffffffffffffffff1681526020019081526020016000206040518060e001604052908160008201548152602001600182018054611f47906137f7565b80601f0160208091040260200160405190810160405280929190818152602001828054611f73906137f7565b8015611fc05780601f10611f9557610100808354040283529160200191611fc0565b820191906000526020600020905b815481529060010190602001808311611fa357829003601f168201915b50505050508152602001600282018054611fd9906137f7565b80601f0160208091040260200160405190810160405280929190818152602001828054612005906137f7565b80156120525780601f1061202757610100808354040283529160200191612052565b820191906000526020600020905b81548152906001019060200180831161203557829003601f168201915b505050505081526020016003820160009054906101000a900473ffffffffffffffffffffffffffffffffffffffff1673ffffffffffffffffffffffffffffffffffffffff1673ffffffffffffffffffffffffffffffffffffffff1681526020016003820160149054906101000a900460ff16151515158152602001600482015481526020016005820180546120e6906137f7565b80601f0160208091040260200160405190810160405280929190818152602001828054612112906137f7565b801561215f5780601f106121345761010080835404028352916020019161215f565b820191906000526020600020905b81548152906001019060200180831161214257829003601f168201915b5050505050815250509050806000015181602001518260400151836060015184608001518560a001518660c00151975097509750975097509750975050919395979092949650565b600080600260149054906101000a900460ff1680156121d35750600260159054906101000a900460ff16155b612212576040517f08c379a0000000000000000000000000000000000000000000000000000000008152600401612209906133d7565b60405180910390fd5b60008080600090505b6005805490508110156122fc57600060058281548110612264577f4e487b7100000000000000000000000000000000000000000000000000000000600052603260045260246000fd5b9060005260206000200160009054906101000a900473ffffffffffffffffffffffffffffffffffffffff1690506000600860008373ffffffffffffffffffffffffffffffffffffffff1673ffffffffffffffffffffffffffffffffffffffff168152602001908152602001600020600401549050848111156122e7578094508193505b505080806122f490613829565b91505061221b565b5080829350935050509091565b600260159054906101000a900460ff1681565b600c5481565b600960205280600052604060002060009150905080600001549080600101805461234b906137f7565b80601f0160208091040260200160405190810160405280929190818152602001828054612377906137f7565b80156123c45780601f10612399576101008083540402835291602001916123c4565b820191906000526020600020905b8154815290600101906020018083116123a757829003601f168201915b5050505050908060020180546123d9906137f7565b80601f0160208091040260200160405190810160405280929190818152602001828054612405906137f7565b80156124525780601f1061242757610100808354040283529160200191612452565b820191906000526020600020905b81548152906001019060200180831161243557829003601f168201915b5050505050908060030160009054906101000a900473ffffffffffffffffffffffffffffffffffffffff16908060030160149054906101000a900460ff16908060040154908060050180546124a6906137f7565b80601f01602080910402602001604051908101604052809291908181526020018280546124d2906137f7565b801561251f5780601f106124f45761010080835404028352916020019161251f565b820191906000526020600020905b81548152906001019060200180831161250257829003601f168201915b5050505050905087565b600260149054906101000a900460ff1680156125525750600260159054906101000a900460ff16155b612591576040517f08c379a0000000000000000000000000000000000000000000000000000000008152600401612588906133d7565b60405180910390fd5b600260009054906101000a900473ffffffffffffffffffffffffffffffffffffffff1673ffffffffffffffffffffffffffffffffffffffff163373ffffffffffffffffffffffffffffffffffffffff1614612621576040517f08c379a000000000000000000000000000000000000000000000000000000000815260040161261890613477565b60405180910390fd5b6001600260156101000a81548160ff0219169083151502179055506000600260146101000a81548160ff02191690831515021790555061265f61284c565b600360009054906101000a900473ffffffffffffffffffffffffffffffffffffffff1673ffffffffffffffffffffffffffffffffffffffff167f174acb57d89de1cd0fa560068c16a3aa03b062340e17dcd0a7e57024deec7b366004546040516126c99190613537565b60405180910390a2565b6000600780549050905090565b6060600680548060200260200160405190810160405280929190818152602001828054801561276457602002820191906000526020600020905b8160009054906101000a900473ffffffffffffffffffffffffffffffffffffffff1673ffffffffffffffffffffffffffffffffffffffff168152602001906001019080831161271a575b5050505050905090565b600360009054906101000a900473ffffffffffffffffffffffffffffffffffffffff1681565b600581815481106127a457600080fd5b906000526020600020016000915054906101000a900473ffffffffffffffffffffffffffffffffffffffff1681565b600681815481106127e357600080fd5b906000526020600020016000915054906101000a900473ffffffffffffffffffffffffffffffffffffffff1681565b6000600580549050905090565b60018160000160008282546128349190613717565b9250508190555050565b600081600001549050919050565b60008080600090505b6005805490508110156129365760006005828154811061289e577f4e487b7100000000000000000000000000000000000000000000000000000000600052603260045260246000fd5b9060005260206000200160009054906101000a900473ffffffffffffffffffffffffffffffffffffffff1690506000600860008373ffffffffffffffffffffffffffffffffffffffff1673ffffffffffffffffffffffffffffffffffffffff16815260200190815260200160002060040154905084811115612921578094508193505b5050808061292e90613829565b915050612855565b5080600360006101000a81548173ffffffffffffffffffffffffffffffffffffffff021916908373ffffffffffffffffffffffffffffffffffffffff160217905550816004819055505050565b82805461298f906137f7565b90600052602060002090601f0160209004810192826129b157600085556129f8565b82601f106129ca57805160ff19168380011785556129f8565b828001600101855582156129f8579182015b828111156129f75782518255916020019190600101906129dc565b5b509050612a059190612a6a565b5090565b508054612a15906137f7565b6000825580601f10612a275750612a46565b601f016020900490600052602060002090810190612a459190612a6a565b5b50565b5080546000825590600052602060002090810190612a679190612a6a565b50565b5b80821115612a83576000816000905550600101612a6b565b5090565b6000612a9a612a9584613692565b613661565b905082815260208101848484011115612ab257600080fd5b612abd8482856137b5565b509392505050565b600081359050612ad481613910565b92915050565b600082601f830112612aeb57600080fd5b8135612afb848260208601612a87565b91505092915050565b600081359050612b1381613927565b92915050565b600060208284031215612b2b57600080fd5b6000612b3984828501612ac5565b91505092915050565b600080600080600060a08688031215612b5a57600080fd5b6000612b6888828901612ac5565b955050602086013567ffffffffffffffff811115612b8557600080fd5b612b9188828901612ada565b945050604086013567ffffffffffffffff811115612bae57600080fd5b612bba88828901612ada565b935050606086013567ffffffffffffffff811115612bd757600080fd5b612be388828901612ada565b925050608086013567ffffffffffffffff811115612c0057600080fd5b612c0c88828901612ada565b9150509295509295909350565b600080600060608486031215612c2e57600080fd5b600084013567ffffffffffffffff811115612c4857600080fd5b612c5486828701612ada565b935050602084013567ffffffffffffffff811115612c7157600080fd5b612c7d86828701612ada565b925050604084013567ffffffffffffffff811115612c9a57600080fd5b612ca686828701612ada565b9150509250925092565b600060208284031215612cc257600080fd5b6000612cd084828501612b04565b91505092915050565b6000612ce58383612cf1565b60208301905092915050565b612cfa8161376d565b82525050565b612d098161376d565b82525050565b6000612d1a826136d2565b612d2481856136f5565b9350612d2f836136c2565b8060005b83811015612d60578151612d478882612cd9565b9750612d52836136e8565b925050600181019050612d33565b5085935050505092915050565b612d768161377f565b82525050565b6000612d87826136dd565b612d918185613706565b9350612da18185602086016137c4565b612daa816138ff565b840191505092915050565b6000612dc2601783613706565b91507f596f75206861766520616c726561647920766f7465642e0000000000000000006000830152602082019050919050565b6000612e02603483613706565b91507f566f74696e672068617320616c726561647920737461727465642c20796f752060008301527f63616e6e6f74207265676973746572206e6f772e0000000000000000000000006020830152604082019050919050565b6000612e68601f83613706565b91507f566f74696e67206973206e6f742063757272656e746c79206163746976652e006000830152602082019050919050565b6000612ea8602183613706565b91507f566f74696e67206d75737420656e64206265666f726520726573657474696e6760008301527f2e000000000000000000000000000000000000000000000000000000000000006020830152604082019050919050565b6000612f0e601983613706565b91507f4e6f20766f746572732061726520726567697374657265642e000000000000006000830152602082019050919050565b6000612f4e602583613706565b91507f596f752061726520616c7265616479207265676973746572656420617320612060008301527f766f7465720000000000000000000000000000000000000000000000000000006020830152604082019050919050565b6000612fb4602583613706565b91507f546869732063616e64696461746520697320616c72656164792072656769737460008301527f657265642e0000000000000000000000000000000000000000000000000000006020830152604082019050919050565b600061301a601683613706565b91507f596f7520617265206e6f7420746865206f776e65722e000000000000000000006000830152602082019050919050565b600061305a601983613706565b91507f566f74696e672068617320616c726561647920656e6465642e000000000000006000830152602082019050919050565b600061309a602283613706565b91507f596f7520617265206e6f742072656769737465726564206173206120766f746560008301527f722e0000000000000000000000000000000000000000000000000000000000006020830152604082019050919050565b6000613100601b83613706565b91507f566f74696e672068617320616c726561647920737461727465642e00000000006000830152602082019050919050565b6000613140601d83613706565b91507f4e6f2063616e646964617465732061726520726567697374657265642e0000006000830152602082019050919050565b6000613180601583613706565b91507f496e76616c69642063616e6469646174652049442e00000000000000000000006000830152602082019050919050565b6131bc816137ab565b82525050565b60006020820190506131d76000830184612d00565b92915050565b60006040820190506131f26000830185612d00565b6131ff60208301846131b3565b9392505050565b600060208201905081810360008301526132208184612d0f565b905092915050565b600060208201905061323d6000830184612d6d565b92915050565b6000608082019050818103600083015261325d8187612d7c565b905081810360208301526132718186612d7c565b90506132806040830185612d00565b81810360608301526132928184612d7c565b905095945050505050565b600060a08201905081810360008301526132b78188612d7c565b905081810360208301526132cb8187612d7c565b905081810360408301526132df8186612d7c565b90506132ee6060830185612d00565b81810360808301526133008184612d7c565b90509695505050505050565b600060e0820190508181036000830152613326818a612d7c565b9050818103602083015261333a8189612d7c565b905061334960408301886131b3565b818103606083015261335b8187612d7c565b905061336a60808301866131b3565b81810360a083015261337c8185612d7c565b905061338b60c0830184612d00565b98975050505050505050565b600060208201905081810360008301526133b081612db5565b9050919050565b600060208201905081810360008301526133d081612df5565b9050919050565b600060208201905081810360008301526133f081612e5b565b9050919050565b6000602082019050818103600083015261341081612e9b565b9050919050565b6000602082019050818103600083015261343081612f01565b9050919050565b6000602082019050818103600083015261345081612f41565b9050919050565b6000602082019050818103600083015261347081612fa7565b9050919050565b600060208201905081810360008301526134908161300d565b9050919050565b600060208201905081810360008301526134b08161304d565b9050919050565b600060208201905081810360008301526134d08161308d565b9050919050565b600060208201905081810360008301526134f0816130f3565b9050919050565b6000602082019050818103600083015261351081613133565b9050919050565b6000602082019050818103600083015261353081613173565b9050919050565b600060208201905061354c60008301846131b3565b92915050565b600060e082019050613567600083018a6131b3565b81810360208301526135798189612d7c565b9050818103604083015261358d8188612d7c565b905061359c6060830187612d00565b6135a96080830186612d6d565b6135b660a08301856131b3565b81810360c08301526135c88184612d7c565b905098975050505050505050565b600060e0820190506135eb600083018a6131b3565b81810360208301526135fd8189612d7c565b905081810360408301526136118188612d7c565b905081810360608301526136258187612d7c565b905061363460808301866131b3565b61364160a0830185612d00565b81810360c08301526136538184612d7c565b905098975050505050505050565b6000604051905081810181811067ffffffffffffffff82111715613688576136876138d0565b5b8060405250919050565b600067ffffffffffffffff8211156136ad576136ac6138d0565b5b601f19601f8301169050602081019050919050565b6000819050602082019050919050565b600081519050919050565b600081519050919050565b6000602082019050919050565b600082825260208201905092915050565b600082825260208201905092915050565b6000613722826137ab565b915061372d836137ab565b9250827fffffffffffffffffffffffffffffffffffffffffffffffffffffffffffffffff0382111561376257613761613872565b5b828201905092915050565b60006137788261378b565b9050919050565b60008115159050919050565b600073ffffffffffffffffffffffffffffffffffffffff82169050919050565b6000819050919050565b82818337600083830152505050565b60005b838110156137e25780820151818401526020810190506137c7565b838111156137f1576000848401525b50505050565b6000600282049050600182168061380f57607f821691505b60208210811415613823576138226138a1565b5b50919050565b6000613834826137ab565b91507fffffffffffffffffffffffffffffffffffffffffffffffffffffffffffffffff82141561386757613866613872565b5b600182019050919050565b7f4e487b7100000000000000000000000000000000000000000000000000000000600052601160045260246000fd5b7f4e487b7100000000000000000000000000000000000000000000000000000000600052602260045260246000fd5b7f4e487b7100000000000000000000000000000000000000000000000000000000600052604160045260246000fd5b6000601f19601f8301169050919050565b6139198161376d565b811461392457600080fd5b50565b613930816137ab565b811461393b57600080fd5b5056fea2646970667358221220d5e069d9e87b4460c33eeb606e97ea21f7da3f14ec41df59fe31b7573606193664736f6c63430008000033",
  "linkReferences": {},
  "deployedLinkReferences": {}
}